:020000040800F2
:10000000B806002001010008F1270008BD240008FF
:100010009D270008090B00082D3200080000000091
:10002000000000000000000000000000992A000805
:10003000430B000800000000E1290008552B0008D0
:100040001B0100081B0100081B0100081B01000820
:100050001B0100081B0100081B0100081B01000810
:100060001B0100081B0100081B0100081B01000800
:100070001B0100080D0B00081B0100081B010008F4
:100080001B0100081B0100081B0100081B010008E0
:100090001B0100081B0100081B0100081B010008D0
:1000A0001B0100081B0100081B0100081B010008C0
:1000B0001B010008B92B00081B0100081B010008E8
:1000C0001B0100081B0100081B0100081B010008A0
:1000D0001B010008DD3100081B010008E9310008A0
:1000E0001B0100081B0100081B010008DFF80CD0F1
:1000F00000F0C0FC004800471D3E0008B806002084
:100100000648804706480047FEE7FEE7FEE7FEE7B1
:10011000FEE7FEE7FEE7FEE7FEE7FEE7B72B000897
:10012000ED000008202A04DB203A21FA02F0002129
:10013000704721FA02F3D040C2F1200291400843F7
:100140001946704740EA01039B0703D009E008C93C
:10015000121F08C0042AFAD203E011F8013B00F88C
:10016000013B521EF9D27047D2B201E000F8012BD8
:10017000491EFBD270470022F6E710B513460A4627
:1001800004461946FFF7F0FF204610BDF0B480EAA0
:100190000102D40F4200B2EB410F02D202460846E0
:1001A00011464A0042D0C30DDDB2C1F3C752AD1AA9
:1001B000202D35DAC1F3160141F4000204B1524298
:1001C000C5F1200602FA06F12A411044B3EBD05FD4
:1001D00023D0C4B1012DA0EBC35009DCF0BC4FF01B
:1001E000004202EAC352DBB200F5000000F0C7BAD9
:1001F000400000F1807000EBC350A0F1807040EA35
:10020000D170490009E0490841EAC071A0EBC35030
:1002100000F50000400800EBC350F0BC00F0A6BAA7
:100220006142012202EB4101001BF6E7F0BC70477E
:1002300081F00041AAE780F00040A7E780EA0102D0
:1002400010B502F00043400022D04A001FD0010E3A
:1002500001EB1261C0F35600C2F3560240F40000F5
:1002600042F40002A0FB022000047F39140400D0F5
:10027000401C50EA124001D44000491EC2B20C0694
:1002800004EBD010401C4008802A02D003E000207C
:1002900010BD20F00100002900DA0020184310BD35
:1002A00030B480EA010202F0004530F0004221F053
:1002B000004013D090B1C30DD40DC2F31601C0F3AA
:1002C0001600E41A41F4000140F400027D3491422A
:1002D00001D3641C00E04900002C02DA30BC00208D
:1002E00070474FF400000023914201D3891A034361
:1002F00040084FEA4101F7D151B1914202D14FF08C
:10030000004105E002D24FF0010101E06FF0010170
:1003100003EBC450284430BC00F028BA420005D09A
:10032000C0F3C7525242914201DC0020704700EBFB
:10033000C15070472DE9FE4F804681EA0300C00F8F
:100340000C46009021F0004123F00045B8EB02007C
:10035000A94105D24046214690461C460B4602461E
:1003600023F00040104347D0270DC7F30A00C3F322
:100370000A510290401A019040286BDAC3F313002F
:1003800040F4801B0098924620B10023D2EB030A70
:1003900063EB0B0B01985946C0F14002504600F048
:1003A000C4F906460D4650465946019A00F0CCF96C
:1003B00010EB08006141002487EA115284EAE773D8
:1003C0001A4340D0009A62B3019A012A4FEA0752B9
:1003D00015DC001B61EB02014FF0004202EA0752FC
:1003E000CDE90042001C41F5801132462B4600F059
:1003F00003FA03B0BDE8F08F40462146F9E7001B41
:1004000061EB0201001C41F5801300185B412018CC
:10041000A2F5001747EB030140EAD570B6196D410C
:1004200011E06D084FEA360645EAC0754FEA0752FB
:10043000001B61EB0201001C41F5801149084FEAE5
:1004400030000019514132462B4603B0BDE8F04F51
:1004500000F0C3B90098012240000023D0EB020253
:1004600063EBE073009821464FEAE074B8EB0000BC
:1004700061EB0401E9E783F000435BE781F00041B1
:1004800058E72DE9FE4F81EA030404F0004421F00F
:10049000004100944FF0000B23F0004350EA0104A8
:1004A0005ED052EA03045BD0C3F30A54C1F30A5589
:1004B0002C44A4F2F3340194A0FB0254C1F31301C1
:1004C00041F48011C3F3130343F4801301FB02448E
:1004D00000FB034E840A970A44EA815447EA835793
:1004E000A4FB076802958D0A05FB07854FEA932C4C
:1004F00004FB0C542705029D4FEA065847EA1637BD
:10050000B5EB08056EEB070C870E920E47EA8117D4
:1005100042EA8312A7FB0201B6EB0B0164EB000475
:100520002B0D43EA0C335E1844EB1C50DA4651465F
:10053000E7FB0201C5F313044FEA0B3343EA1453FC
:100540004FEA0432019C43EA0603A4F10C0402942E
:10055000009CCDE900B400F04FF903B0BDE8F08F86
:1005600000200146F9E7C10F80EAE0700844CA079D
:100570009623002100F003B996230022114600F0D3
:10058000FEB80EB5C10F80EAE0700844CA0700212A
:1005900040F233438DE80E000A460B4600F02CF97A
:1005A00003B000BD00F0004220F00040C10DC0F3D8
:1005B000160040F400007F2901DA002070479629D8
:1005C00003DCC1F19601C84001E096398840002A59
:1005D000F4D04042704770B5C1F30A5201F00045B3
:1005E0000024C1F3130140F2FF3341F480119A4219
:1005F00001DA002070BD40F233439A42A2F2334246
:1006000003DC5242FFF78EFD00E090402C43F1D016
:10061000404270BD00F0004230F000400AD0C10DF1
:1006200001F56071C0F3160042EA0151C2084007AB
:100630001143704700200146704701F0004330B479
:1006400021F0004150EA010206D00A0DA2F56072C5
:10065000C1F31301002A02DC30BC00207047440FB4
:1006600044EAC104C100E01830BC00EBC25000F005
:100670007DB80000002801DBC0F10040002901DB4B
:10068000C1F1004181427047002801DBC0F1004008
:10069000002901DBC1F100418842704730B50B46AB
:1006A000014600202022012409E021FA02F59D42A2
:1006B00005D303FA02F5491B04FA02F52844151E76
:1006C000A2F10102F1DC30BD2DE9F05F054600200A
:1006D00092469B4688460646814640241BE02846B3
:1006E000414647462246FFF71DFD53465A46C01A6B
:1006F000914110D311461846224600F016F82D1AE3
:1007000067EB01084F4622460120002100F00DF85A
:1007100017EB00094E41201EA4F10104DFDC48461E
:1007200031462A464346BDE8F09F202A04DB203AA2
:1007300000FA02F1002070479140C2F1200320FA34
:1007400003F3194390407047202A06DBCB17203A69
:1007500041FA02F043EAE07306E041FA02F3D040C6
:10076000C2F1200291400843194670470029A8BFF2
:100770007047401C490008BF20F00100704710B4CA
:10078000B0FA80FC00FA0CF050EA010404BF10BC7F
:10079000704749B1CCF1200421FA04F411FA0CF1AC
:1007A00018BF012121430843A3EB0C01CB1D4FEAE5
:1007B00000614FEA102042BF002010BC704700EBE0
:1007C000C35010440029A4BF10BC7047401C49000E
:1007D00008BF20F0010010BC704710B5141E73F163
:1007E000000408DA401C41F1000192185B411A43F1
:1007F00001D120F0010010BD2DE9F04D92469B463D
:1008000011B1B1FA81F202E0B0FA80F220329046E2
:10081000FFF78BFF04460F4640EA0A0041EA0B014E
:1008200053465A46084313D0114653EA010019D0E3
:10083000C8F140025046FFF775FC05460E4650468B
:1008400059464246FFF771FF084305D0012004E0F6
:1008500020463946BDE8F08D0020054346EAE076A3
:100860002C4337430A986305E40AA0EB08000022F2
:10087000FD0A44EA47540A3002D500200146E9E760
:10088000010510196941DDE9084500196941BDE814
:10089000F04DA2E72DE9F04D81EA030404F0004B8E
:1008A00021F0004514464FF0000A23F0004150EAC1
:1008B000050220D054EA01021DD0C5F30A570246B2
:1008C000C5F31303C1F31300C1F30A5640F48015B6
:1008D00043F48013A7EB0608101BD64608F2FD3838
:1008E00073EB050002D308F1010801E092185B41A7
:1008F000B8F1000F03DA00200146BDE8F08D0020BA
:100900004FF48011064684460EE0171B73EB050773
:1009100005D3121B63EB050306434CEA010C49089F
:100920004FEA300092185B4150EA0107EDD152EADC
:10093000030012D082EA040083EA0501084305D0CF
:10094000101BAB4106D20122002306E000224FF02B
:10095000004302E06FF0010253101AEB06004CEB6B
:10096000085110EB0A0041EB0B01BDE8F04DFFF719
:1009700034BF2DE9F04D00231A461B1A8A4103DBD0
:1009800000200146BDE8F08DC1F30A52C1F3130106
:1009900041F480154FF0000BD10702D100186D41D2
:1009A000521E0027044640F2FF11384601EB620A4E
:1009B0003E468046024600204FF48011FFF7B2FB0E
:1009C000C2197141BB1846EB0100B4EB030C75EB87
:1009D000000C04D3E41A65EB000517460E462419F3
:1009E00008F101006D4180463428E3DDF91946EB3A
:1009F0000600091BA84103D24FF0FF32134601E065
:100A0000002213461BEB070046EB0A51BDE8F04DF0
:100A1000FFF7E3BEC1F30A52C1F3130140F2FF3303
:100A200041F480119A4202DA00200146704740F2F8
:100A300033439A42A2F2334202DC5242FFF772BBC6
:100A4000FFF773BE30B5041E71F1000404DB4FF0F4
:100A50000044404264EB0101141E73F1000405DB05
:100A60001C464FF00043524263EB0403994208BF17
:100A7000904230BD064C074D06E0E06840F00103AF
:100A800094E8070098471034AC42F6D3FFF732FBE6
:100A900080410008A041000810B501F0A2FF01F05C
:100AA000B7FF642000F0D0F901F0B2FF024803491B
:100AB0000068086010BD00003C0000204C000020D1
:100AC00010B501F0A5FF01F02DFE0C490A4C096894
:100AD000FFF7AEFB206080F0004001F085FFFFF7DC
:100AE000ACFD074C0146074A2060606803F074F9CA
:100AF0002068606010BD00003C0000204C00002019
:100B00002000002000002041FEE70000014800F026
:100B10008BB800004001002030B590F8405001240F
:100B2000AC40C56B6C60046863604368102B03685D
:100B300003D099600068C26030BD9A600068C160EF
:100B400030BD704772B6FEE710B590F82110002254
:100B5000022905D00421816380F82020012010BDE6
:100B600001680B6823F00E030B6001680B6823F02B
:100B700001030B6090F84030C46B012101FA03F3CC
:100B8000636080F8211080F82020104610BD00001E
:100B900010B590F821100024022903D004218163AC
:100BA00001243DE001680A6822F00E020A60016833
:100BB0000A6822F001020A601A4A0168914201D1D2
:100BC000012121E0174A1432914201D110211BE08A
:100BD000144A2832914201D1891515E0114A3C325C
:100BE000914201D189140FE00E4A5032914202D154
:100BF0004FF4803108E00B4A6432914202D14FF445
:100C0000801101E04FF08071064A083A51600121DD
:100C100080F82110002180F82010416B01B1884735
:100C2000204610BD080002402DE9F05FC16B0C6842
:100C300001680B68D0F840C0042202FA0CF2494D5A
:100C4000DFF824A1494E4A4FDFF828B1DFF828E148
:100C500022422CD05A072AD50A68920603D40A6881
:100C600022F004020A600168A94201D1042219E0BD
:100C7000514501D1402215E0B14202D14FF48062CA
:100C800010E0B94202D14FF480420BE0594502D145
:100C90004FF4802206E0714502D14FF4800201E05A
:100CA0004FF080622F4908394A60C16A3BE04FF03B
:100CB000020808FA0CF818EA040F4FF000094FF088
:100CC000010235D05FEA837832D50B689B0605D4E4
:100CD0000B6823F00A030B6080F821200168A94209
:100CE00001D1022219E0514501D1202215E0B14283
:100CF00002D14FF4007210E0B94202D14FF4005219
:100D00000BE0594502D14FF4003206E0714502D1A3
:100D10004FF4001201E04FF00072124908394A60A6
:100D200080F82090816A00291AD0BDE8F05F08475A
:100D3000082505FA0CF5254212D01B0710D50B68C3
:100D400023F00E030B6090F84010C36B02FA01F120
:100D50005960826380F8212080F82090016BE2E7DF
:100D6000BDE8F09F080002401C0002403000024035
:100D700044000240580002406C00024030B528B3E5
:100D800008C8134914221944B1FBF2F18900C16368
:100D900010498163022141771A6843F6F0718A4352
:100DA000D0E900142143D0E902452C4321430469D2
:100DB000214344692143846921431143196000217F
:100DC0004163012242770177084630BD012030BDE2
:100DD000F8FFFDBF0000024070B5044690F8200007
:100DE000002501280CD0012084F8200094F821600F
:100DF0000020012E06D084F820000225284670BD70
:100E0000022070BD022684F82160A0632068066875
:100E100026F0010606602046FFF77EFEE06A002805
:100E20002068016802D041F00E0106E021F00401C3
:100E300001602068016841F00A01016020680168D2
:100E400041F001010160D9E770B5044600F008F9EE
:100E50000546601C02D004480078044400F000F904
:100E6000401BA042FAD370BD000000202DE9F84FCE
:100E7000DFF8B891002409F1040A0AF1040B2346B3
:100E80000F270BF1040EC9E00125A5402A40AA4214
:100E90007DD1674ED1F804C0ACEB0608B44532D022
:100EA00014DCBCF1030F3AD009DCBCF1000F2AD0EE
:100EB000BCF1010F1CD0BCF1020F31D11DE0BCF11F
:100EC000110F17D0BCF1120F2AD119E0B8F5881F05
:100ED00019D006DCB8F5803F15D0B8F5801F1FD1BA
:100EE00011E0B8F5001F0ED0B8F5041F18D10AE0C4
:100EF000CB6815E0CB681B1D12E0CB6808330FE010
:100F0000CB680C330CE08B682BB1012B4FF008033E
:100F100003D0456104E0042302E0056100E0002302
:100F2000FF2A01D8064601E000F104064FEA8405D5
:100F300001D9A5F12005D6F8008007FA05FC28EABA
:100F40000C0803FA05F548EA0508C6F800804D6864
:100F5000ED0062D5374DAE6946F00106AE61AD6970
:100F600024F0030605F001050095334D06EB050C52
:100F7000DCF80850A607360F07FA06F825EA080538
:100F8000DFF8B880404503D14FF0000817E044E097
:100F9000DFF8AC80404502D14FF001080FE0DFF8E8
:100FA000A480404502D14FF0020808E0DFF89880A5
:100FB000404502D14FF0030801E04FF0040808FA61
:100FC00006F848EA0508CCF808804D68D9F80060B2
:100FD000ED034D4601D5164300E096432E604D6863
:100FE000DAF80060AD03554601D5164300E096439C
:100FF0002E604D68DBF80060ED025D4601D51643BA
:1010000000E096432E604D68DEF80060AD02754644
:1010100001D5164300E096432E60641C0D682A46F5
:10102000E5407FF431AFBDE8F88F000000040140D7
:1010300000001110001002400000014000080140B3
:10104000000C01400010014000140140806808407D
:1010500000D0012070470AB1016170470904FBE725
:101060000148806870470000000000200248816845
:10107000027811448160704700000020074810B5D5
:10108000016841F010010160032000F075F80F20A5
:1010900000F006F800F024F8002010BD0020024007
:1010A00070B50D4D04464FF47A712878B1FBF0F01D
:1010B0000A490968B1FBF0F000F0ECFA48B9102CCD
:1010C00007D200222146501E00F036F800206C6046
:1010D00070BD012070BD0000000000200C00002049
:1010E0000C4808B5816941F001018161816901F015
:1010F00001010091C16941F08051C161C06900F0F6
:10110000805000900448416821F0E06141F0007196
:10111000416008BD0010024000000140002809DBCA
:1011200000F01F02012191404009800000F1E02001
:10113000C0F8001170470000F0B40E4B1B680C465D
:10114000C3F30223C3F10705042D00D90425191D9B
:10115000072901D2002300E0DB1E012606FA05F173
:10116000491E214099409E40761E16403143F0BCF6
:1011700002F042B90CED00E0064900F007020868F1
:101180004FF6FF03184040EA0220034A104308606C
:10119000704700000CED00E00000FA052DE9F04773
:1011A0000F46050061D0434E306800F00700B8429A
:1011B00009D2306820F0070038433060306800F012
:1011C0000700B84251D128683B4C810712D540072F
:1011D00003D5606840F4E06060602878000703D5BC
:1011E000606840F4605060606068A96820F0F000BA
:1011F000084360602878C00728D06868012810D0AC
:101200002168022810D0890700292EDA616821F0B0
:10121000030101436160FFF723FF804641F28839F3
:101220000DE021688903EFE78901EDE7FFF718FF7B
:10123000A0EB0801494502D90320BDE8F0876068AA
:10124000696800F00C00B0EB810FEFD1306800F05E
:101250000700B8420BD9306820F0070038433060EF
:10126000306800F00700B84201D00120E5E7287897
:10127000400705D56068E96820F4E06008436060D5
:101280002878000706D56068296920F4605040EA94
:10129000C100606000F038F86168084AC1F30311CA
:1012A000515CC8400649086006480068FFF7F8FE30
:1012B0000020C2E700200240001002406841000800
:1012C0000C0000200400002004480549006849681B
:1012D000044AC1F30221515CC84070470C00002051
:1012E0000010024078410008044805490068496838
:1012F000044AC1F3C221515CC84070470C00002071
:10130000001002407841000812A185B00FC98DE895
:101310000F0014A0144A006804905168134801F0AB
:101320000C03042B10D0082B0ED1C1F38343C90347
:101330001DF803000AD5516804AAC1F34041515C6D
:101340000A4A5043B0FBF1F005B0704708494843E2
:10135000FAE7000002030405060708090A0B0C0D52
:101360000E0F1010010200000010024000127A005F
:1013700000093D002DE9F84F040070D02078C04DE1
:10138000C00749D06868C0F38100012807D06868A9
:10139000C0F38100022809D16868C00306D5286817
:1013A000800339D560680028E7D035E06068B0F583
:1013B000803F0BD010B1B0F5A02F11D0286820F4D9
:1013C00080302860286820F4802002E0286840F4FB
:1013D00080302860606890B1FFF742FE06460AE060
:1013E000286840F480202860F0E700BFFFF738FE4F
:1013F000801B642873D828688003F7D50CE0FFF7BA
:101400002FFE064605E000BFFFF72AFE801B64287A
:10141000F0D828688003F7D420789A4E80074FF0E0
:1014200001094FF0000839D5686810F00C0F07D09B
:101430006868C0F38100022809D16868C00306D437
:101440002868800714D52069012808D110E0206998
:10145000B0B1C6F80090FFF703FE074605E00AE1C9
:10146000FFF7FEFDC01B0228C4D828688007F7D507
:101470002868616920F0F80040EAC10028600DE0AA
:10148000C6F80080FFF7ECFD074604E0FFF7E8FD33
:10149000C01B022823D828688007F7D420780007CB
:1014A0002CD57948A169D9B1C0F80090FFF7D8FDD3
:1014B000074604E0FFF7D4FDC01B02280FD8686A76
:1014C0008007F7D571484FF4FA510068B0FBF1F08E
:1014D000009000BF0098411E0091FAD20EE080E01B
:1014E000C0F80080FFF7BCFD074604E0FFF7B8FD39
:1014F000C01B022875D8686A8007F7D42078400797
:1015000060D5E8690027C00008D4E86940F0805041
:10151000E861E869012700F0805000905C480168AC
:10152000C90513D40168834641F480710160FFF757
:1015300097FD824606E000BFFFF792FDA0EB0A0090
:1015400064284ED8DBF80000C005F5D5E068012816
:101550000AD008B1052813D0286A20F001002862BB
:10156000286A20F0040002E0286A40F001002862A6
:10157000E06841F2883B98B1FFF772FD82460BE0CC
:10158000286A40F004002862EEE700BFFFF768FD1C
:10159000A0EB0A0159455AD8286A8007F6D50CE015
:1015A000FFF75EFD824605E0FFF75AFDA0EB0A015A
:1015B00059454CD8286A8007F6D41FB1E86920F055
:1015C0008050E861E06988B36968C1F3810102294C
:1015D00044D00228C6F8608004D0FFF741FD0446DD
:1015E00038E034E0FFF73CFD074604E0FFF738FD44
:1015F000C01B02282BD828688001F7D4206AB0F5D8
:10160000803F05D16868A16820F400300843686015
:10161000D4E908010843696821F47411084368603B
:10162000C6F86090FFF71CFD044606E025E000BF09
:10163000FFF716FD001B022809D828688001F7D59E
:101640001BE000BFFFF70CFD001B022802D903209E
:10165000BDE8F88F28688001F4D40EE00128F7D0A7
:101660006868226A00F48031914204D1616A00F412
:101670007010884201D00120EAE70020E8E700006E
:101680000010024000004242800442420C00002050
:101690000070004010B5401EB0F1807F01D30120E2
:1016A00010BD4FF0E02460610F21601701F0A4FE2F
:1016B0000020A06107202061002010BD7047704706
:1016C00070B590F83C20012A26D0012480F83C40D7
:1016D000022280F83D2003685A689D6822F0700657
:1016E0000A6832435A600D4B02689A4208D0B2F140
:1016F000804F05D00A4B9A4202D00A4B9A4204D13D
:10170000496825F080031943916080F83D4000212D
:1017100080F83C10084670BD022070BD002C0140CE
:10172000000400400008004010B5040003D094F805
:101730003D0010B107E0012010BD002084F83C00FE
:10174000204600F01FF8022084F83D00211D20688B
:1017500001F038FA012084F8460084F83E0084F84D
:101760003F0084F8400084F8410084F8420084F887
:10177000430084F8440084F8450084F83D000020CC
:1017800010BD000000B585B00021009101910291CB
:10179000039100681249884220D11248C16941F082
:1017A0000201C161C16901F002010491816941F046
:1017B000040181618069694600F004000490C02042
:1017C0000090022002900848FFF750FB00221146CB
:1017D0001D20FFF7B1FC1D20FFF7A0FC05B000BDE8
:1017E00000040040001002400008014070B50446AB
:1017F00090F83C00012817D0012584F83C500220C5
:1018000084F83D002068826822F0770222F47F424B
:1018100082600868502830D00DDC20284DD005DCCF
:1018200098B310283BD148E0022070BD302844D046
:10183000402834D139E0602828D0702806D0B0F58F
:10184000805F2CD0B0F5005F29D10AE0CB68D1E9E8
:101850000121206801F0F9F92068816841F07701E1
:1018600009E0CB68D1E90121206801F0EEF9206898
:10187000816841F48041816011E0CA68496820684C
:1018800001F098FA5021206807E016E0CA6849681C
:10189000206801F0CDFA6021206801F0E0F984F8B9
:1018A0003D50002084F83C0070BDCA68496820683B
:1018B00001F080FA40212068EFE7226801461046D7
:1018C000EBE700002DE9F041054600682849884211
:1018D0002CD1287F274E012812D1274C274F207862
:1018E000012825D0022821D10021304600F071FBCB
:1018F00078600021304600F06DF92078401C20709F
:10190000287F022812D11E4C1E4D207801281FD09E
:1019100002280BD10421174800F05BFB686004210A
:10192000144800F057F92078401C2070BDE8F08181
:101930000021104800F04DFB38603068016A21F04A
:101940000A0101623068016A41F002010162D4E7D4
:101950000421084800F03DFB28603068016A21F04E
:10196000A00101623068016A41F020010162DAE7FA
:10197000000400407000002050000020C001002042
:1019800051000020CC0100202DE9F041054690F8DF
:101990003C000C46012836D0012085F83C008AB373
:1019A000042A42D02868082A51D0D4E90023E168EB
:1019B000066A26F480560662C669076A26F44076EF
:1019C00046EA03234FF6FF7606EA013123F470431B
:1019D00019434FF4005627F4005306EA02321A4323
:1019E000C16102622868C16921F44061C16128684F
:1019F000C169A26841EA0221C161002085F83C006A
:101A0000BDE8F08101E00220FAE7D4E90012E368C2
:101A1000286801F0E1F92868816921F00C018161F1
:101A200028688169A26811430FE0D4E90012E368D5
:101A3000286801F00FFA2868816921F4406181610A
:101A400028688169A26841EA02218161D5E7D4E969
:101A50000027267B016A21F480710162C169036A53
:101A600021F00301394321F0F00731074FF40076EC
:101A700047EA116123F4007306EA02221A43C161A6
:101A800002622868C16921F00C01C1612868C1693E
:101A9000A2681143B0E710B5040003D094F83D00EC
:101AA00010B107E0012010BD002084F83C00204662
:101AB00000F01EF8022084F83D00211D206801F08E
:101AC00081F8012084F8460084F83E0084F83F0045
:101AD00084F8400084F8410084F8420084F8430010
:101AE00084F8440084F8450084F83D00002010BDCF
:101AF0007047000010B5044651B104290DD00829E3
:101B000010D094F8410094F84520012811D10EE03E
:101B100094F83E0094F84220F7E794F83F0094F8D8
:101B20004320F2E794F8400094F84420EDE7012ABE
:101B300001D0012010BD022051B1042911D0082983
:101B400018D084F8410084F845000C291BD136E0F8
:101B500084F83E0084F842002068C26842F0020225
:101B600010E084F83F0084F843002068C26842F027
:101B7000040207E084F8400084F844002068C2684A
:101B800042F00802C2600122206801F051F80E49BB
:101B90002068884208D0B0F1804F05D00B498842B8
:101BA00002D00B49884204D1816801F0070106295F
:101BB00003D0016841F001010160002010BD2068E0
:101BC000C26842F01002DDE7002C01400004004032
:101BD0000008004030B5044600680D0006D0042D12
:101BE00008D0082D28D00C2D08D129E0C16821F09B
:101BF000020102E0C16821F00401C160002229460F
:101C0000206801F015F82068016A41F211121142B2
:101C100007D1016A9210114203D1016821F001013C
:101C20000160012085B1042D11D0082D12D004F8D7
:101C3000410F2071002030BDC16821F00801DCE7B0
:101C4000C16821F01001D8E704F83E0FF1E704F86D
:101C50003F0FEEE704F8400FEBE770B5044600686D
:101C600001694FF00005C943890715D4C168C9430C
:101C7000890711D4E91E016101202077206880695D
:101C80008007204602D0FFF71DFE04E000F0BEF8FA
:101C9000204600F04DF9257720680169C9434907BE
:101CA00017D4C168C943490713D46FF00401016117
:101CB000022020772068806910F4407F204602D0FF
:101CC000FFF700FE04E000F0A1F8204600F030F934
:101CD000257720680169C943090716D4C168C9433B
:101CE000090712D46FF008010161042020772068F1
:101CF000C0698007204602D0FFF7E4FD04E000F051
:101D000085F8204600F014F9257720680169C94359
:101D1000C90617D4C168C943C90613D46FF01001AE
:101D20000161082020772068C06910F4407F2046B8
:101D300002D0FFF7C7FD04E000F068F8204600F08D
:101D4000F7F8257720680169C943C90708D1C16838
:101D5000C943C90704D1891E0161204600F038F942
:101D600020680169C943090609D4C168C943090645
:101D700005D46FF0800101612046FFF79FFC2068C9
:101D80000169C943490609D4C168C943490605D454
:101D90006FF040010161204600F030F920680169D0
:101DA000C94389060BD4C168C943890607D46FF0BB
:101DB000200101612046BDE87040FFF780BC70BD86
:101DC00000B585B000210091019102910391006856
:101DD0000B49884211D10B48816941F008018161AA
:101DE0008069694600F008000490032000900220FA
:101DF000019003900448FFF739F805B000BD0000DA
:101E00000004004000100240000C0140704770B513
:101E1000044690F83C000D4601280AD0012084F8C1
:101E20003C0042B1042A18D0082A2AD00C2A4DD1ED
:101E300039E0022070BD206800F01AFF2068816937
:101E400041F0080181612068816921F0040181610C
:101E5000206881692A69114311E0206800F030FF91
:101E60002068816941F4006181612068816921F401
:101E700080618161206881692A6941EA022181616A
:101E800024E0206800F048FF2068C16941F00801A3
:101E9000C1612068C16921F00401C1612068C16984
:101EA0002A69114311E0206800F062FF2068C169CF
:101EB00041F40061C1612068C16921F48061C161A0
:101EC0002068C1692A6941EA0221C161002084F8C1
:101ED0003C0070BD10B5040003D094F83D0010B173
:101EE00007E0012010BD002084F83C00204600F0EF
:101EF0001EF8022084F83D00211D206800F062FEDB
:101F0000012084F8460084F83E0084F83F0084F8FD
:101F1000400084F8410084F8420084F8430084F8CB
:101F2000440084F8450084F83D00002010BD70474F
:101F30007047000010B50446022249B104290ED0B2
:101F4000082913D094F84100012816D0012010BDB3
:101F500094F83E000128F9D184F83E200FE094F86F
:101F60003F000128F2D184F83F2008E094F84000B7
:101F70000128EBD184F8402001E084F841200122BF
:101F8000206800F055FE0F492068884203D1426C5A
:101F900042F4004242642068884208D0B0F1804F89
:101FA00005D00949884202D00849884204D1816895
:101FB00001F00701062903D0016841F00101016029
:101FC000002010BD002C014000040040000800402B
:101FD00070470246002041B1042909D008290AD0DF
:101FE0000C2901D11068006C70471068406B704775
:101FF0001068806B70471068C06B704770477047FF
:1020000010B504460068416994F83D20C1F3C01141
:10201000212A0BD151B1416921F080014161606BEE
:1020200008B1FEF791FD204600F0AEFF206841693F
:1020300094F83E20C1F38011222A0BD151B141699D
:1020400021F040014161A06B08B1FEF77DFD204603
:1020500000F082FF002010BD70470000F8B5026854
:1020600004461068D168536910F00F0F4FF0000557
:1020700053D003F0010601F4907737435FD0C207D5
:1020800005D0CA0503D5226C42F001022264420742
:1020900005D5DA0703D0226C42F0020222648207DF
:1020A00005D5DA0703D0226C42F00402226402074D
:1020B00007D501F02002324303D0226C42F008021F
:1020C0002264226C002A34D0800604D5880602D50A
:1020D000204600F062FF20684069216CC0F3801048
:1020E000090700D430B3204600F036FF206841696C
:1020F00049061BD5416921F040014161A06BA8B19F
:1021000058494163A06BFEF743FD002811D0A06B36
:10211000416B01B0BDE8F040084783060FD58B0640
:102120000DD52046BDE8F84000F037BF2046FFF748
:1021300093FFF8BD2046FFF78FFF2564F8BD266B9F
:102140002023012E52D1C60650D5CE064ED510689A
:1021500050680090506940062AD5A16B0868406815
:102160000004000CEAD0A68D8642E7D9E085886994
:10217000202818D0D06820F48070D0602068416991
:1021800021F0010141612068416921F04001416174
:1021900084F83E3025632068C16821F01001C160D9
:1021A000A06BFEF7D1FCA08DE18D401A81B219E041
:1021B000A08DE18D401A81B2E08D0028BED00029AB
:1021C000BCD0D06820F49070D0602068426922F0C2
:1021D0000102426184F83E3025632068C26822F023
:1021E0001002C2602046FFF70AFFF8BD05062BD596
:1021F0000D0629D594F83D002128F6D1A068B0F548
:10220000805F01D12069B0B1206A411C2162216840
:1022100000784860E08C401E0004000CE084E4D1AB
:102220002068C16821F08001C1602068C16841F068
:102230004001C160F8BD206A0088C0F3080050600A
:10224000206A801C2062E5E74006F3D54806F1D5F8
:10225000D168204621F04001D16084F83D3000F083
:102260002CF9F8BD8B2E000870B5040004D094F84A
:102270003D00002510B106E0012070BD84F83C50FF
:10228000204600F023F8242084F83D002068C1682F
:1022900021F40051C160204600F0DAFE2068016997
:1022A00021F4904101612068416921F02A014161D6
:1022B0002068C16841F40051C1602564202084F881
:1022C0003D0084F83E00002070BD0000F0B585B0F0
:1022D0000024009401940294039406460368374F47
:1022E0000220374903224502BB4226D18B6943F4C1
:1022F00080438B618B6903F4804304938B6943F0C3
:1023000004038B6189692F4E01F0040104910102DD
:10231000CDE90010039269463046FEF7A7FDCDE9EE
:102320000054694630460294FEF7A0FD0022114693
:102330002520FEF701FF25203CE0234FBB423BD187
:10234000CB6943F48023CB61CB6903F480230493EE
:102350008B6943F008038B61896901F00801CDE9BD
:102360000321CDE90050194D69462846FEF77EFD50
:10237000E814CDE90004694628460294FEF776FD8C
:10238000144D1348C5E900048020C5E902402C61C2
:1023900040016C61C5E906402846FEF7EFFC08B134
:1023A000FEF7D0FBB5630022114627206E62FEF7D0
:1023B000C3FE2720FEF7B2FE05B0F0BD0038014095
:1023C000001002400008014000480040000C01409D
:1023D000300002404001002090F83E30202B0ED10A
:1023E00059B152B190F83C30012B08D0012380F84C
:1023F0003C300023036300F087BE012070470220B9
:1024000070477047704700002DE9F843044690F884
:102410003D001F4616460D4620284CD1C5B1BEB121
:1024200094F83C00012846D0012084F83C004FF08D
:102430000008C4F84080212084F83D00FEF710FE1B
:10244000A6848146E684A068B0F5805F03D004E0EE
:102450000120BDE8F883206928B12E465FF0000511
:1024600084F83C800EE00026FAE78021204600F048
:1024700083FEA0B9AEB116F8010B21684860E08C6C
:10248000401EE084E08C4B464FF00002009700288D
:10249000EBD14FF04001204600F06EFE30B103203A
:1024A000D7E735F8020BC0F30800E6E7202084F8F0
:1024B0003D000020CDE70220CBE77047FEE700009B
:1024C00007490978012905D0022905D0032905D13A
:1024D00001F0F2BD01F0A6BD01F04ABD7047000059
:1024E0005C000020094808B5416941F001014161E3
:1024F0004069002200F00100009011460D20FEF717
:102500001BFEBDE808400D20FEF708BE001002408B
:10251000F0B585B0002424480094019402940394FB
:10252000816941F010018161816901F0100104911C
:10253000816941F020018161816901F020010491EC
:10254000816941F004018161816901F00401049114
:10255000816941F0080181618069012200F0080071
:10256000124E5503049029463046FEF774FD104F75
:1025700001220E213846FEF76EFD00950125CDE9BA
:1025800001540224694630460394FEF76FFC0E2086
:10259000009011200394CDE9010569463846FEF705
:1025A00065FC05B0F0BD00000010024000100140C5
:1025B0000008014010B592B000240B940C940D94C7
:1025C0000E940F9410940794089409941C21684663
:1025D0000A94FDF7D0FD30482E4901604721C0E93B
:1025E000011444F62061C0E903148461FFF79CF8EC
:1025F00008B1FEF7A7FA4FF480500B900BA92648BC
:10260000FFF7F4F808B1FEF79DFA2348FFF743FA05
:1026100008B1FEF797FA2048FFF75CFC08B1FEF717
:1026200091FA0F940FA91C481094FFF749F808B1CC
:10263000FEF788FA0120CDE907400994002207A996
:1026400015480A94FFF7A0F908B1FEF77BFA0422B7
:1026500007A91148FFF798F908B1FEF773FA60204F
:10266000CDE900040294082269460B480494FFF760
:10267000CEFB08B1FEF766FA0C2269460648FFF762
:10268000C6FB08B1FEF75EFA0348FFF799FB12B0EC
:1026900010BD000000040040700000200C4810B580
:1026A0000A4901604FF4E1314160002181600C2250
:1026B000C160C0E904128161C161FFF7D5FD002846
:1026C00003D0BDE81040FEF73DBA10BD0038014010
:1026D000B800002010B5114C0F480C2120604FF4B9
:1026E000E13060600020A060E060C4E90401A06106
:1026F000E0612046FFF7B8FD08B1FEF723FA206835
:10270000C16841F01001C160BDE810406422044975
:102710000248FFF761BE000000480040FC000020B6
:10272000EC010020F0B51C4A8FB00E2102EB8103B2
:1027300053F8043C42F82130491E11F0FF01F5D155
:1027400010603C216846FDF716FD3C2212496846A0
:10275000FDF7F8FC002634466D4601E000240FE04A
:1027600005EB840755F824007968FDF78DFF05D245
:1027700055F82400796845F824107860641CE4B2A8
:10278000C6F10E00A042EBDC761CF6B20E2EE5D3AD
:1027900007980FB0F0BD000084010020FEE70000A4
:1027A0002DE9F041054600F0B9F8512000F088F815
:1027B00000F0F2F820B100F0D1F80020BDE8F0817F
:1027C00000240A4E6F1E0BE000F056F83055BC4254
:1027D00002D000F00FF801E000F032F8641CA4B25F
:1027E000AC42F1D300F0BAF80120E7E7280000205E
:1027F000FEE7000010B50E4C002208212046FEF72F
:102800002AFC00F017F8012204212046FEF723FCE1
:1028100000F010F8002204212046FEF71CFC00F016
:1028200009F820460122BDE810400821FEF713BC3C
:10283000000801400020401CC0B20A28FBD37047AA
:1028400010B50C4C012208212046FEF704FCFFF7CE
:10285000F1FF012204212046FEF7FDFBFFF7EAFF0E
:10286000002204212046FEF7F6FBBDE81040FFF7EA
:10287000E1BF00000008014070B500240F4E25465E
:102880006006040E012204213046FEF7E4FBFFF748
:10289000D1FF08213046FEF7D9FB08B1641CE4B231
:1028A000002204213046FEF7D6FBFFF7C3FF6D1C64
:1028B000EDB2082DE4D3204670BD000000080140B1
:1028C00070B5154E05460024280601D5012200E00A
:1028D000002208213046FEF7BEFBFFF7ABFF0122C6
:1028E00004213046FEF7B7FBFFF7A4FF00220421C6
:1028F0003046FEF7B0FB072C04D1012208213046F8
:10290000FEF7A9FB6806050EFFF794FF641CE4B20E
:10291000082CD9D370BD00000008014010B50E4C42
:10292000012208212046FEF796FBFFF783FF0122D4
:1029300004212046FEF78FFBFFF77CFF00220821D1
:102940002046FEF788FBFFF775FF20460022BDE812
:1029500010400421FEF77FBB0008014010B50D4C6C
:10296000002204212046FEF776FB002208212046A3
:10297000FEF771FBFFF75EFF012204212046FEF700
:102980006AFB012208212046FEF765FBBDE81040E6
:10299000FFF750BF0008014070B5104D012208211B
:1029A0002846FEF758FBFFF745FF01220421284681
:1029B000FEF751FBFFF73EFF08212846FEF746FBD6
:1029C00008B1012400E00024002204212846FEF77B
:1029D00042FBFFF72FFF204670BD000000080140BA
:1029E0007047FFF7BBBF000010B50121FDF796FC53
:1029F0000549FDF723FC0549FDF752FCFDF70AFEEA
:102A0000BDE8104001F08EBA9A75D74591ED9C3F14
:102A10002DE9F0410420FFF7C3FE1B48044601786E
:102A20008A092ED1427801F03F0102EB0127E761CC
:102A3000C178807801EB0020460926622169E068B0
:102A40008846FDF7F5FB05463846FDF795FD6168BC
:102A5000FDF7EEFB2946FDF7F1FBA168FDF720FC31
:102A60004146FDF793FB60613046FDF785FD074960
:102A7000FDF7E4FB0649FDF713FC0649FDF7D8FB1B
:102A8000A0616069BDE8F081280000200000484393
:102A900000E0FF44000048427047000010B50028E5
:102AA00000DA00200B490860FDF76BFD0A4A0B4B6A
:102AB000FDF7E7FC00220A4BFDF73CFC0022094B26
:102AC000FDF7DFFCFDF787FD074980B20968C863A1
:102AD00010BD0000600000201CC7711CC771BC3F06
:102AE00000001440000059407000002008B5002884
:102AF00000DA002010494860FDF735FD0F4A00213B
:102B00001346009101F0F0F9FDF74CFDFDF739FD9A
:102B10000B4A0C4BFDF7B5FC00220B4BFDF70AFCF2
:102B200000220A4BFDF7ADFCFDF755FD084980B2C8
:102B30000968086408BD0000600000200000B4427D
:102B40001CC7711CC771BC3F0000144000005940F5
:102B500070000020FEF78ABA30B58FB02821684691
:102B6000FDF709FB14210AA8FDF705FB0121080464
:102B7000CDE900100024029402250491CDE907500C
:102B80004FF4E01009906846FEF7F4FB08B172B606
:102B9000FEE70F20CDE90A054FF48060CDE90C4037
:102BA00002210AA80E94FEF7F9FA002801D072B6A5
:102BB000FEE70FB030BD70470148FFF74EB8000088
:102BC00070000020F0B50268164B174C174D4FF0FF
:102BD0008047984205D0B84203D0A04201D0A84215
:102BE00003D122F070064A683243984205D0B842B9
:102BF00003D0A04201D0A84203D122F44074CA6895
:102C000022434C6922F08002224302608A68C26239
:102C10000A688262984201D1096901630121416118
:102C2000F0BD0000002C01400004004000080040FE
:102C300010B501F01F030121046A99408C4304621E
:102C4000016A9A401143016210BD10B5846842EADE
:102C5000032224F47F440A432243826010BD826829
:102C600022F070020A4342F00701816070470000C1
:102C700030B5026A22F001020262026A4368846986
:102C800024F073050C682C4322F002058A682A435D
:102C90000A4DA8420BD122F00805CA6823F44073FC
:102CA0002A434D6922F004021D438B692B43436084
:102CB000846149684163026230BD0000002C01401C
:102CC00030B5026A22F010020262026A4368846927
:102CD0000D6824F4E64444EA05248D6822F02002BD
:102CE00042EA05120B4DA8420ED1CD6822F08002B7
:102CF00042EA05124D6923F4406343EA85038D6976
:102D000022F0400243EA850343608461496881639D
:102D1000026230BD002C014030B5026A22F480729C
:102D20000262036A4268C46923F4007324F07305E5
:102D30000C682C438D6843EA05230C4DA8420ED144
:102D4000CD6823F4006343EA05234D6922F4405221
:102D500042EA05128D6923F4806342EA051242605B
:102D6000C4614968C163036230BD0000002C0140AA
:102D700030B5026A22F480520262046A4268C36972
:102D80000D6823F4E64343EA05238D6824F40054D8
:102D900044EA0534064DA84204D14D6922F480422C
:102DA00042EA85124260C36149680164046230BD31
:102DB000002C014010B5036A046A24F00104046287
:102DC000846924F0F00444EA021423F00A020A435E
:102DD0008461026210BD000070B5046A24F0010431
:102DE00004628469056A0F4EB04208D0B0F1804F8A
:102DF00005D00D4EB04202D00C4EB04203D124F0AB
:102E00000304144301E044F001041A0724F0F00421
:102E100044EA126225F00A0301F00A0119438261B3
:102E2000016270BD002C0140000400400008004019
:102E300010B5036A23F0100303628369046A23F464
:102E4000704343EA023224F0A00343EA0111826195
:102E5000016210BD30B5046A24F010040462846974
:102E6000056A24F4407444EA022222F470444FF6C6
:102E7000FF7202EA03322243A02425F0A00304EAF1
:102E8000011119438261016230BD10B5406A002111
:102E9000C185C184FFF7E0F810BD70B5446A2068B1
:102EA000406994F83D10C0F3C0100025212904D1D9
:102EB00018B1E584204600F067F82068406994F86E
:102EC0003E10C0F38010222904D118B1E5852046B8
:102ED00000F042F8206C40F0100020642046FFF71C
:102EE000BBF870BD10B50146406A096809688906DB
:102EF0001BD40021C1850168CA6822F48072CA60AF
:102F000001684A6922F001024A6101684A6922F0B7
:102F100040024A61202180F83E10016B012904D152
:102F20000168CA6822F01002CA60016B012902D050
:102F3000FFF767FA10BD818DFFF761F810BD10B57E
:102F4000406A016B012902D0FFF75CFA10BD818D48
:102F50004908FFF754F810BD0168CA6822F490725E
:102F6000CA6001684A6922F001024A61016B0129C5
:102F700004D10168CA6822F01002CA60202180F8DA
:102F80003E100021016370470168CA6822F0C00248
:102F9000CA60202180F83D10704708B590F83E10B7
:102FA000222901D0022008BD82684FF480539A4242
:102FB00001D1016921B1816A9A421BD04AB10AE06C
:102FC0000268816A5268C2F308020A80816A891C19
:102FD00008E0026972B10268526802F07F020A706A
:102FE000816A491C8162C18D491E0904090CC18591
:102FF00003D019E002685268F1E70168CA6822F05C
:103000002002CA600168CA6822F48072CA6001683E
:103010004A6922F001024A61202180F83E10016BCA
:10302000012903D0FFF7EDF9002008BD002101635D
:103030000168CA6822F01002CA6001680A68D206F4
:1030400002D50A6849680091818DFEF7D8FFEBE749
:1030500070B5044600680169E26821F440511143EB
:1030600001612169A0680843616908432168CA6851
:1030700041F20C639A430243CA6020684169A26925
:1030800021F44071114341611E492068884202D1F8
:10309000FEF72AF901E0FEF717F900EBC00101EB9A
:1030A0000012606864218000B2FBF0F3B3FBF1F31F
:1030B0006FF018067343B2FBF0F5B2FBF0F605EBC8
:1030C0008305322303EB0515B5FBF1F5B6FBF1F6ED
:1030D00005F0F00505EB0615B2FBF0F6B2FBF0F0DB
:1030E000B0FBF1F06FF01802504306EB800003EBE9
:1030F0000010B0FBF1F0216800F00F002844886058
:1031000070BD00000038014038B58162828500251D
:10311000134604460564222084F83E00A26B13483F
:103120009062A26B1248D062A26B12481063A06B2F
:103130000A4645632168A06B091DFDF74DFE206816
:1031400001684168009184F83C50C16841F4807185
:10315000C1602068416941F0010141612068416915
:1031600041F040014161002038BD0000E52E00081B
:103170003F2F00089B2E00082DE9F0419846174686
:103180000E460446069D1DE0681C1BD02DB1FDF7C0
:1031900067FFA0EB0800A84214D92068C16821F499
:1031A000D071C1602068416921F001014161202096
:1031B00084F83D0084F83E00002084F83C000320A1
:1031C000BDE8F0812068006836EA000004D00020E5
:1031D000B842D9D00020F3E70120F9E70148FEF713
:1031E0003DBF0000B80000200D4808B50068016828
:1031F000C1F3001179B10168406800900848FEF7FA
:10320000FFFE642207490848FCF79CFF6422054939
:103210000348FFF7E1F8BDE808400148FEF71EBF8C
:10322000FC000020EC01002050020020FEE700001E
:103230002DE9F84300F060FD544D554C554E0128E2
:1032400004D0022801D000287ED08EE0E078FDF77F
:1032500093F9E168FDF718FA05D20020FFF71EFC8C
:103260000020FFF743FCE078FDF786F9E168FDF701
:1032700001FA3DD22079FDF77FF9E168FDF704FA04
:1032800036D22869A168FCF7D9FF81466078FDF73E
:1032900073F907462079FDF76FF98046E078FDF76E
:1032A0006BF90146009700234246E06800F01CFEDF
:1032B0004946FCF7BDFFFDF775F9FFF7EFFB2869FD
:1032C000A168FCF7BBFF80466078FDF755F907461B
:1032D0002079FDF751F90546E078FDF74DF90146F3
:1032E000009700232A46E06800F0FEFD414628E0F2
:1032F0002079FDF741F9E168FDF7BCF906D32079A3
:10330000FDF73AF9E168FDF7B5F92ED12869B0F576
:10331000000F1DDBA168FCF791FF07466078FDF701
:103320002BF93946FCF784FFFDF73CF9FFF7B6FBB4
:103330002869A168FCF782FF05466078FDF71CF953
:103340002946FCF775FF00E007E0FDF72BF90AE0DE
:103350006078FFF7A3FB607805E00F48E06000208D
:10336000FFF79CFB0020FFF7C1FBE1683068FDF729
:103370008BF908D26078FDF7FFF83168FDF784F922
:1033800001D23068E060BDE8F8830000D801002079
:1033900010000020200000200050C3C70C4810B5CA
:1033A000002101704FF07C52826050224270052251
:1033B00082700A22C27014220271C160082105487D
:1033C000FEF7B8FDBDE810400C210248FEF7B2BD83
:1033D00010000020700000200FB4054B10B503A9A9
:1033E000044A029800F0F0F810BC5DF814FB0000ED
:1033F000053E0008680000200907090E002804DBCC
:1034000000F1E02080F80014704700F00F0000F198
:10341000E02080F8141D704702E008C8121F08C1A0
:10342000002AFAD170477047002001E001C1121F45
:10343000002AFBD170470000014908607047000076
:103440006C0000202DE9FF5F82B00021DDE904302F
:10345000020DDDF840B0034318D044F61050A2F23C
:10346000FF3242431514119801281FD0A5EB0B0021
:10347000401C5FEA000A4FF000064E4FDFF838911B
:10348000B046504615D5CAF1000413E01198012446
:103490004AA3012801D16FEA0B010298119AC0E9F1
:1034A0000031C0E9024206B0BDE8F09FCBF1000058
:1034B000DFE704460021404A491842EB0450CDE9B9
:1034C000001012E0E00707D032463B46404649462E
:1034D000FCF7D7FF8046894632463B4610461946E0
:1034E000FCF7CFFF06460F466410002CEAD1DDE959
:1034F0000401DDE90023BAF1000F06DAFCF7C1FF91
:1035000042464B46FCF7BDFF05E0FDF7C3F94246D6
:103510004B46FDF7BFF904460E460022284BFDF747
:1035200091FA03D84FF0FF30014607E00022254B07
:1035300020463146FCF7FEFEFDF76CFA102409E048
:10354000002C0ADB0A220023FDF7BEF8039B303271
:103550001A55641E50EA0102F2D1641C039AC4F1A8
:1035600011031444119A012A03D0012208430DD1FA
:103570000AE0084304D000204FF0110B119072E7CD
:10358000A3EB0B056D1E0DE05B4504DD4FF0000263
:1035900005F1010504E003DA4FF00002A5F1010591
:1035A000002AECD002981199C0E90231C0E9004527
:1035B00079E70000000014400000F03F30000000F8
:1035C0000000F0430000E03F2DE9FF4F95B09B461F
:1035D0008946064600250FE2252877D10024274694
:1035E000F84A0121059400E0044316F8013F203B0E
:1035F00001FA03F01042F7D130782A2811D06FF089
:103600002F033078A0F13002092A16D8059A44F029
:10361000020402EB820203EB42021044761C059086
:10362000EFE759F8042B0592002A03DA504244F4DC
:103630000054059044F00204761C30782E2816D1F0
:1036400016F8010F44F004042A280DD06FF02F0261
:103650003078A0F13003092B09D807EB870302EB80
:103660004303C718761CF3E759F8047B761C3078BF
:103670006C280FD006DC4C2817D068280DD06A289B
:1036800014D104E0742810D07A280FD10DE044F44E
:1036900000140AE044F4801401E044F44014727809
:1036A000824202D104F58014761C761C307866289C
:1036B0000BD013DC582877D009DC002875D04528BA
:1036C000F6D04628F4D047281AD19DE118E06328A7
:1036D00035D0642879D0652812D195E1702873D04F
:1036E00008DC6728F1D069286FD06E280DD06F28CC
:1036F00006D1B5E073282CD0752875D0782874D001
:103700005A46179990476D1C75E1C4F30250022880
:1037100009D003280DD0D9F8001004280DD00D6071
:1037200009F1040967E1D9F80010EA17C1E900526C
:10373000F6E7D9F800100D80F2E70D70F0E719F800
:10374000041B8DF8001000208DF80100EA460120CE
:1037500003E059F804AB4FF0FF3061074FF0000170
:1037600002D40DE008F101018846B9420FDA804524
:10377000F8DB1AF808100029F4D108E008F101017B
:1037800088468142FADB1AF808100029F6D105981C
:103790005B46A0EB080721463846179A00F094FADA
:1037A000284400EB080507E04DE029E10DE01AF898
:1037B000010B5A4617999047B8F10108F7D25B46BA
:1037C00021463846179A13E142E00A220092C4F3D8
:1037D00002524FF0000A022A08D059F804CB032AFB
:1037E0004FEAEC710AD00DE029E02AE009F1070167
:1037F00021F00702F2E802C1914609E00FFA8CFCC1
:103800004FEAEC71042A03D14FFA8CFC4FEAEC71B9
:10381000002907DA0A460021DCF1000C61EB020105
:103820002D2202E0220504D52B228DF8042001224E
:1038300003E0E20701D02022F7E7904659E00A2191
:1038400002E010220DE010214FF0000A00910BE081
:1038500010224FF0000A44F004040827009203E00D
:1038600008224FF0000A0092C4F30252022A05D047
:1038700059F804CB0021032A08D009E009F1070117
:1038800021F00702F2E802C1914605E01FFA8CFC24
:10389000042A01D10CF0FF0C4FF00008220728D5B4
:1038A000702806D0009B83F0100353EA0A0305D06A
:1038B0000EE040228DF80420012208E05CEA0102BB
:1038C00006D030228DF804208DF8050002229046A3
:1038D000009B83F0080353EA0A030AD15CEA010261
:1038E00001D1620705D530228DF804204FF0010880
:1038F0007F1E582804D034A003900EA802900DE03B
:1039000036A0F9E753466046009AFCF7DDFE844690
:103910000398825C0298401E029002705CEA0100EB
:10392000F0D1029806A9081A00F1200A600702D512
:1039300024F4803400E00127574502DDA7EB0A009C
:1039400000E0002000EB0A01009005984144401A75
:103950000590E00306D45B462146179A059800F0CF
:10396000B3F90544002706E001A85A46C05D17993F
:1039700090476D1C7F1C4745F6DBE0030CD55B468A
:103980002146179A059800F09FF9054404E030207D
:103990005A46179990476D1C0099481E00900029BF
:1039A000F5DC08E0029802995A460078491C029119
:1039B000179990476D1CBAF10001AAF1010AF1DCD8
:1039C00065E10000092801003031323334353637E3
:1039D000383961626364656600000000303132335B
:1039E00034353637383941424344454600000000FB
:1039F00000F058F90544761C307800287FF4ECADCF
:103A000019B02846BDE8F08F620700D4062709F1F7
:103A1000070222F0070CFCE80223E14603F000480D
:103A20005FEA080C02D00FF2702C0DE05FEA045C34
:103A300002D50FF2682C07E05FEAC47C02D00FF2D7
:103A4000602C01E0AFF2700C4FF0FF3823F0004320
:103A5000CDF850C065280CD006DC452809D0462892
:103A60001DD047283DD13DE0662818D067287ED17B
:103A700038E00021112F01DB112000E0781CCDE996
:103A8000000106A90EA8FFF7DDFCDDE90F010E9A83
:103A900003910021009207F1010A04914DE04FF0DB
:103AA00000400097CDE9011006A90EA8FFF7CAFC57
:103AB000DDE90F0203920E9B11990022DDF80CA0A4
:103AC0000093049211B9791C00EB010AB7EB0A00CC
:103AD00004D4C0F1FF3007F1010A0490AAEB0700FB
:103AE000019044E0012F00DA01270021112F01DDB0
:103AF000112000E03846CDE9000106A90EA8FFF725
:103B0000A1FCDDE90F010E9A0391002104910092BE
:103B1000BA4621070CD40399514500DA8A46BAF116
:103B2000010F05DD009AAAF10101515C302908D08E
:103B3000B84202DA10F1040F06DA0121CDE90110D2
:103B400015E0AAF10101E9E7002805DC0499014428
:103B50000491AAEB000102E0411C514500DD8A46B8
:103B60000499401A401C01904FF000400290200739
:103B700004D40198504501DBCDF8048000208DF875
:103B80004F0002980DF14F07B0F1004F25D02B20C8
:103B90000E9002984FF0020800280CDA4042029082
:103BA0002D200E9007E00A210298FCF777FD3031B6
:103BB000029007F8011DB8F10001A8F10108F2DC3C
:103BC00002980028EFD1791E0E980870307800F026
:103BD000200040F0450007F8020D12A8C01B00F1BC
:103BE00007081498007800B1012000EB0A01019841
:103BF00001EBE07105984144401A401E0590E00336
:103C000006D45B462146179A059800F05DF80544F6
:103C10001498007818B15A46179990476D1CE00324
:103C200024D55B462146179A059800F04DF80544C7
:103C30001CE00498002807DBDDE90301884203DD6E
:103C40000098405C179901E0179930205A46904738
:103C5000049805F10105401C04900198401E019054
:103C600004D12E205A46179990476D1CBAF10001D5
:103C7000AAF1010ADDDC05E017F8010B5A46179995
:103C800090476D1CB8F10001A8F10108F4DC5B4617
:103C90002146179A0598ABE62D0000002B00000086
:103CA000200000002DE9F041044600251E4617467D
:103CB000880404D405E039462020B0476D1C641EFA
:103CC000F9D52846BDE8F0812DE9F04104460025EC
:103CD0001E469046C80301D5302700E020278804FF
:103CE00004D505E041463846B0476D1C641EF9D541
:103CF0002846BDE8F081000012484068002801DA3B
:103D0000F6207047B0F57A6F01D900207047A0F215
:103D1000213240F257230C499A4201D200200DE093
:103D2000A0F27952B2F5C77F01D8012006E040F237
:103D3000BB22A0F20970904201D2022008700878DC
:103D40007047000050000020100000202DE9F041D5
:103D50001E4C01261E4D2078002710B1032816D1D5
:103D60000DE026702868016A21F00A0101622868C6
:103D7000016A016200211648FDF7BCFE07E0154804
:103D800003C8081A60600A20FDF75EF827706078A3
:103D900060B1032808D10F480C3003C8081AA0608E
:103DA0000A20FDF751F86770BDE8F0816670286859
:103DB000016A21F0A00101622868016A0162BDE880
:103DC000F04104210248FDF795BE0000500000209C
:103DD00070000020C001002070B514460D46064654
:103DE000FCF729FA2146FCF74FFC07D32946304659
:103DF000FCF71EFA2146FCF747FC01D2304670BDA5
:103E0000284670BD13B54FF6FF730122694602487C
:103E1000FEF7FAFA00981CBDB8000020FDF72EF955
:103E2000FEF79AFEFEF774FBFEF75CFBFEF7C2FBA3
:103E3000FEF734FCFEF74EFC032000F08FF9FCF790
:103E40002BFEFFF7ABFA174C174D184E184FDFF843
:103E5000648000BFFFF77AFF1748FEF731FBFCF7DD
:103E60002FFEFFF7E5F92068FCF7D4FB02460B466E
:103E700012A0FFF7B1FA14A02968FFF7ADFA14A059
:103E80003168FFF7A9FA14A03968FFF7A5FAD8F846
:103E90001000FCF7BFFB02460B4611A0FFF79CFA8F
:103EA000D8E700002000002054000020600000201F
:103EB00064000020D8010020500200206169723A9D
:103EC000252E316620000000723A25642000000093
:103ED000313A256420000000323A256420000000B9
:103EE000723A252E31660D002DE9F04106469846BE
:103EF0000D461046069FFCF79BF90446414638469E
:103F0000FCF796F92146FCF7CBF9044629463046E2
:103F1000FCF78EF92146FCF791F94146BDE8F041E6
:103F2000FCF734B92DE9F04106460F46FCF721FDB8
:103F3000041E0D4618BF0120284320F00040C0F1A8
:103F40007F6000F1E040C00F0ED0301C18BF012090
:103F5000384320F00040C0F17F6000F1E040C00F26
:103F600004BF0120FFF768FA20462946BDE8F0812A
:103F70002DE9F05F05460024DFF89CB0274E45E0B0
:103F8000285D5A2842D1204607E0295C5A2903D1EE
:103F9000291849785A2902D0401C0F28F5DB2F191F
:103FA0004FF0640837F8030F40BAB0FBF8F0FCF7A5
:103FB000E3FA81463061788840BAB0FBF8F0FCF74C
:103FC000DBFA8246B060B88840BAB0FBF8F0FCF784
:103FD000D3FA0746F060D8464846C14501DC30694F
:103FE00003E00F49FCF724F9306180F000403061B4
:103FF0005046C24503DD0A49FCF71AF9B06047454F
:1040000004DD07493846FCF713F9F060285D641CAD
:104010005A28B5D0BDE8F09F00003443D8010020F5
:1040200000C023442DE9F05F07460024DFF87C80C0
:104030001F4D30E070884FF0640940BAB0FBF9F0D2
:10404000FCF79AFA8346A860B08840BAB0FBF9F052
:10405000FCF792FA8246E860308840BAB0FBF9F08B
:10406000FCF78AFA46462861B04203DD1149FCF7A5
:10407000DFF8286180F0004028615846B34503DD31
:104080000C49FCF7D5F8A8605046B24503DD094954
:10409000FCF7CEF8E860385D641CAA2803D13E190D
:1040A000B0795528C6D0BDE8F09F00000000344329
:1040B000D801002000C023442DE9F05FDFF8908094
:1040C000DFF890B0244D07460024385D55283AD1DA
:1040D0003E197078532836D17088FCF74DFA6FF08E
:1040E0000E0A5146FCF71AF94146FCF7A7F881463B
:1040F0002861B088FCF740FA5146FCF70FF94146B9
:10410000FCF79CF88246A860F0790002FCF734FACC
:104110000646E8604846C14503DD5946FCF788F885
:1041200028615046C24503DD5946FCF781F8A86076
:10413000464504DD59463046FCF77AF8E8602869C0
:1041400080F000402861641C642CBEDBBDE8F09F59
:10415000000034430000B443D80100200149087036
:10416000704700005C00002000000000000000001C
:10417000010203040607080900000000010203040D
:10418000A041000800000020700000001834000862
:104190001042000870000020480600002834000883
:1041A0000100000010000000000000000024F400E6
:1041B00000000000000000000000000000000000FF
:1041C0000000000000000000000000009AC9CC447C
:1041D000CD6266460000803F000080BF0000000006
:1041E00000000000000000000000000000000000CF
:1041F00000000000000000000000000000000000BF
:1042000000000000000000000000000000000000AE
:04000005080000ED02
:00000001FF
